:100000000C94620B0C9400000C9400000C94000003
:100010000C9400000C9400000C9400000C94C40D8F
:100020000C9400000C9400000C9400000C94000050
:100030000C9400000C9400000C9400000C94000040
:100040000C9400000C9400000C9400000C94000030
:040050000C9400000C
:1016C400BFE5BDBFB8E0BEBF0E94FE0E2F923F92A1
:1016D4004F925F926F927F928F92EBDC29E216E930
:1016E40000E80A95F1F71A95E1F72A95D1F7CADBD4
:1016F400B1E02B2E65DBBCE02B2E62DBB4EA4B2E73
:10170400BDE15B2EBEE62B2EB1E03B2EC4DF2801EB
:10171400B3E03B2EB1E02B2EDBDCB1EB4B2EBDE175
:101724005B2EBEE62B2EB1E03B2EB5DF2801B4E0E4
:101734003B2EB2E02B2ECCDC2DE311EE00E40A9517
:10174400F1F71A95E1F72A95D1F700000000B0E00F
:10175400B0936C0100916C010E3090F4BCE12B2E1F
:101764002FDB25E01FE002EF0A95F1F71A95E1F768
:101774002A95D1F700916C010F5F00936C01EACFB9
:10178400B1E02B2E1DDB40DEB1E02B2E19DB0091E6
:101794006100109162000F5F1F4F0093610010936E
:1017A400620042E050E00E942F008C010093680127
:1017B400B0E0B093600000916000083048F5B0E0FC
:1017C400B0936300009163000830E0F4009160007E
:1017D400202F30E0220F331F220F331F220F331F1D
:1017E40004EA10E0200F311F00916300E02FF0E0C5
:1017F400E20FF31FB0E2B083009163000F5F009328
:101804006300E0CF009160000F5F00936000D3CFCE
:10181400BFE4B093C800BFE4B093BF00B8E5B09391
:10182400C700B8E5B093C000109168010091680149
:101834000F5F0093680110FF80C0BFE46B2EB4E615
:101844004B2EB0E05B2EB4EA2B2EB0E03B2E88DCAE
:10185400B02FB12B09F446C00E9472020091E5003A
:10186400202F30E0220F331F220F331F220F331F8C
:1018740004E610E0200F311F0091E400E02FF0E0B7
:10188400E20FF31F0081002381F0BFE48B2E6090F0
:10189400E400B0E07B2E4090E500B0E05B2EB4EABB
:1018A4002B2EB0E03B2E87D91CC0B1E02B2E88DA5A
:1018B400B7E54B2EBDE15B2EBEE62B2EB1E03B2EF1
:1018C400EADE2801B1E03B2EB1E02B2E01DC29E257
:1018D40016E900E80A95F1F71A95E1F72A95D1F788
:1018E400BBCF2AC0B1E02B2E6BDAB3E14B2EBDE1A6
:1018F4005B2EBEE62B2EB1E03B2ECDDE2801B1E0FF
:101904003B2EB1E02B2EE4DBB8E84B2EBDE15B2E81
:10191400BEE62B2EB1E03B2EBEDE2801B1E03B2E0D
:10192400B2E02B2ED5DB29E216E900E80A95F1F79F
:101934001A95E1F72A95D1F77FC0B8E56B2EB4E686
:101944004B2EB0E05B2EB4EA2B2EB0E03B2E08DC2D
:10195400B02FB12B09F446C00E9472020091E50039
:10196400202F30E0220F331F220F331F220F331F8B
:1019740004E610E0200F311F0091E400E02FF0E0B6
:10198400E20FF31F0081002381F0B8E58B2E6090F5
:10199400E400B0E07B2E4090E500B0E05B2EB4EABA
:1019A4002B2EB0E03B2E07D91CC0B1E02B2E08DA59
:1019B400B7E54B2EBDE15B2EBEE62B2EB1E03B2EF0
:1019C4006ADE2801B1E03B2EB1E02B2E81DB29E257
:1019D40016E900E80A95F1F71A95E1F72A95D1F787
:1019E400BBCF2AC0B1E02B2EEBD9B3E14B2EBDE126
:1019F4005B2EBEE62B2EB1E03B2E4DDE2801B1E07E
:101A04003B2EB1E02B2E64DBB8E84B2EBDE15B2E00
:101A1400BEE62B2EB1E03B2E3EDE2801B1E03B2E8C
:101A2400B2E02B2E55DB29E216E900E80A95F1F71E
:101A34001A95E1F72A95D1F7BFE46B2EB4E64B2E45
:101A4400B0E05B2EB4EA2B2EB0E03B2E89DB20E025
:101A540030E0201731070CF4E7CEB8E56B2EB4E67E
:101A64004B2EB0E05B2EB4EA2B2EB0E03B2E78DB9D
:101A740020E030E0201731070CF4D6CEB1E02B2E55
:101A84009FD9B2E04B2EBDE15B2EBEE62B2EB1E01A
:101A94003B2E01DE2801B1E03B2EB1E02B2E18DBFA
:101AA40022E51BE200E00A95F1F71A95E1F72A9581
:101AB400D1F70000000000000000B4EA2B2EB0E0D3
:101AC4003B2E0E9494040E948E030091E600013094
:101AD40009F45DCEB1E02B2E73D9B8E64B2EBDE1EF
:101AE4005B2EBEE62B2EB1E03B2ED5DD2801B1E006
:101AF4003B2EB1E02B2EECDA2AE711EC02E80A9532
:101B0400F1F71A95E1F72A95D1F700000000B0E04B
:101B1400B093600000916000083048F5B0E0B093E5
:101B24006300009163000830E0F400916000202F0E
:101B340030E0220F331F220F331F220F331F04EA1A
:101B440010E0200F311F00916300E02FF0E0E20F5E
:101B5400F31FB0E2B083009163000F5F0093630052
:101B6400E0CF009160000F5F00936000D3CFB8E036
:101B74002B2E26D98F907F906F905F904F903F903F
:041B84002F90FFCFD0
:1010B600BFB7B068BFBFB0E8BFBDB9E0BEBDBFE156
:0E10C600BBBDBFE3BABDB9B7B061B9BF0895F5
:100E8800B0913200BF7BB0933200B0913B00BB7F82
:100E9800B0933B00B0913500BF77B0933500B09167
:100EA8003500BF7BB0933500B0913500BF7DB0935E
:100EB8003500B0913500BF7EB0933500B091310058
:100EC800B064B0933100B0913A00B460B0933A0086
:100ED800B0913400B061B0933400B0913400B06286
:100EE800B0933400B0913400B064B0933400B09142
:100EF8003400B068B093340005DA04DA03DAB0914C
:100F08003500B062B0933500B0913500B061B09350
:100F18003500B0913200B064B0933200FCD9B09182
:100F28003200BF7BB0933200EDD9B0913200B0648B
:100F3800B0933200F0D9B0913200BF7BB093320049
:100F4800E1D9B0913200B064B0933200E4D9B091E5
:100F58003200BF7BB0933200D5D9B0913500BF7E47
:100F6800B0933500B0913200B064B0933200D3D959
:100F7800B0913200BF7BB0933200C4D9B091320037
:100F8800B064B0933200C7D9B0913200BF7BB09340
:100F98003200B0913500BF7DB0933500B091350077
:100FA800B068B0933500B0913200B064B0933200AD
:100FB800B2D9B0913200BF7BB0933200A3D9B091BF
:100FC8003500BF77B0933500B0913500B061B0936C
:100FD8003500B0913200B064B09332009CD9B09122
:100FE8003200BF7BB0933200B0913500BF7EB09322
:100FF8003500B0913200B064B09332008CD9B09112
:101008003200BF7BB09332007DD9B0913200B0641A
:10101800B093320080D9B0913200BF7BB0933200D8
:10102800B0913500B061B0933500B0913200B06432
:10103800B093320070D9B0913200BF7BB0933200C8
:1010480061D9B0913500BF7EB0933500B0913200C0
:10105800B064B09332005FD9B0913200BF7BB093D7
:101068003200B0913500B068B0933500B0913500CA
:10107800B064B0933500B0913500B062B0933500DC
:10108800B0913500B061B0933500B0913200B064D2
:10109800B093320040D9B0913200BF7BB093320098
:0E10A80031D9B0916B01B260B0936B01089525
:10030C001AE303E20A95F1F71A95E1F700000000F1
:02031C00089542
:0C031E0002E00A95F1F7000000000895CD
:100DC40027FAB0913500B7F9B093350026FAB091FF
:100DD4003500B6F9B093350025FAB0913500B5F970
:100DE400B093350024FAB0913500B4F9B0933500CE
:100DF400B0916B0100903B00E894B1FF689402F855
:100E040000923B00B0913200B064B093320085DAB6
:100E1400B0913200BF7BB093320023FAB091350019
:100E2400B7F9B093350022FAB0913500B6F9B09312
:100E3400350021FAB0913500B5F9B093350020FAA8
:100E4400B0913500B4F9B0933500B0916B010090C6
:100E54003B00E894B1FF689402F800923B00B09123
:100E64003200B064B093320058DAB0913200BF7BE4
:100E7400B0933200B0916B01B1FF02C045DA01C0FA
:040E8400E7D808950E
:0A00540005E80A95F1F70000089591
:1010D4002F920FC0B0E82B2E19C0B0EC2B2E16C0E7
:1010E400B4E92B2E13C0B4ED2B2E10C0B0E82B2E78
:1010F4000DC0B1E02B1671F3B2E02B1671F3B3E01F
:101104002B1671F3B4E02B1671F3F0CF032D0150BD
:10111400020D202E202E54DEB0916B01BD7FB093C2
:101124006B0110E0E12FF0E0E40DF51D00810023D8
:1011340081F0E12FF0E0E40DF51D00811F932F9263
:10114400202E0E9459002F901F91012F0F5F102F06
:10115400E9CFB0916B01B260B0936B012F90089509
:001164008B
:1000B200B0916B01BD7FB0936B0183D6B0916B01A0
:0800C200B260B0936B010895D8
:10169A00A101910181010F5F1F4F1801F20182011F
:1016AA000F5F1F4F28010491F9010083F90100819E
:0A16BA00002309F0EECF8A01089525
:10140C00CF93DF93CDB7DEB72397CDBFDEBF219649
:10141C002F923F924F925F92B0E0BA830E94650088
:10142C00003009F0FBCFB4B3B061B4BBB4B3B0625D
:10143C00B4BBB4B3B064B4BBB4B3B068B4BBB1E0C8
:10144C002B2EBADCB4E24B2EBDE15B2EBEE62B2E6E
:10145C00B1E03B2E1CD12801B1E03B2EB1E02B2E8C
:10146C0033DEB6E44B2EBDE15B2EBEE62B2EB1E097
:10147C003B2E0DD12801B1E03B2EB2E02B2E24DE09
:10148C0022E51BE200E00A95F1F71A95E1F72A959F
:10149C00D1F700000000000000000E946500003041
:1014AC0009F0FBCFB4B3B061B4BBB4B3B062B4BB9E
:1014BC00B4B3B064B4BBB4B3B068B4BBB1E02B2E5E
:1014CC007BDCB5E34B2EBDE15B2EBEE62B2EB1E0F3
:1014DC003B2EDDD02801B1E03B2EB1E02B2EF4DD0C
:1014EC00B7E94B2EBDE15B2EBEE62B2EB1E03B2EB9
:1014FC00CED02801B1E03B2EB2E02B2EE5DDB0E0E2
:10150C00B093600000916000083090F5B0E0B093AB
:10151C00630000916300083028F500916000502FA3
:10152C0060E0550F661F550F661F550F661F04EAC6
:10153C0010E0050F161F40916300242F30E0200FA0
:10154C00311F08EE10E0050F161FE42FF0E0E00F3E
:10155C00F11F0081F9010083009163000F5F00937C
:10156C006300D7CF009160000F5F00936000CACF7B
:10157C000E946500003009F439C018E605EE0A95A2
:10158C00F1F71A95E1F7B981B0FD2FC00E94650003
:10159C00003059F10E94650008830130B1F00881D8
:1015AC00023099F00881033081F00881043069F031
:1015BC000881053051F00881063039F00881073078
:1015CC0021F00881083009F007C00A810F5F0A83F7
:1015DC00B0E0B093E70006C00A810F5F0A83B1E068
:1015EC00B093E700B981B160B983C2CFB981BE7F36
:1015FC00B9830E946500003099F5B4B3B061B4BBF7
:10160C00B4B3B062B4BBB4B3B064B4BBB4B3B0687D
:10161C00B4BB0091E700003081F4BDEE4B2EBDE170
:10162C005B2EBEE62B2EB1E03B2E31D02801BDE067
:10163C003B2EB2E02B2E48DD13C00091E7000130A9
:10164C0079F4B2EF4B2EBDE15B2EBEE62B2EB1E052
:10165C003B2E1DD02801BDE03B2EB2E02B2E34DDFD
:10166C000A81013008F484CF29E216E900E80A95D2
:10167C00F1F71A95E1F72A95D1F75F904F903F90CB
:0E168C002F902296CDBFDEBFDF91CF91089543
:1000CA00B1B3B068B1BBB4B3BF7EB4BBB4B3BF7D88
:1000DA00B4BBB4B3BF7BB4BBB4B3BF77B4BBB2B326
:1000EA00B068B2BB12E009E00A95F1F71A95E1F798
:1000FA00B3B3B4FF02C001E0ACC0B3B3B5FF02C0F2
:10010A0002E0A7C0B3B3B6FF02C003E0A2C0B3B314
:10011A00B7FF02C004E09DC0B4B3B061B4BBB1B3D1
:10012A00BF77B1BBB4B3BF7DB4BBB4B3BF7BB4BB01
:10013A00B4B3BF77B4BBB5B3B061B5BB12E009E0E5
:10014A000A95F1F71A95E1F7B3B3B5FF02C005E0D6
:10015A0080C0B3B3B6FF02C006E07BC0B3B3B7FF3B
:10016A0002C007E076C0B4B3B062B4BBB1B3BF7724
:10017A00B1BBB4B3BF7EB4BBB4B3BF7BB4BBB4B37F
:10018A00BF77B4BBB5B3B062B5BB12E009E00A955C
:10019A00F1F71A95E1F7B3B3B4FF02C008E059C00A
:1001AA00B3B3B6FF02C009E054C0B3B3B7FF02C08D
:1001BA000AE04FC0B4B3B064B4BBB1B3BF77B1BB4C
:1001CA00B4B3BF7EB4BBB4B3BF7DB4BBB4B3BF7763
:1001DA00B4BBB5B3B064B5BB12E009E00A95F1F758
:1001EA001A95E1F7B3B3B4FF02C00BE032C0B3B360
:1001FA00B5FF02C00CE02DC0B3B3B7FF02C00DE0DB
:10020A0028C0B4B3B068B4BBB1B3BF77B1BBB4B3A1
:10021A00BF7EB4BBB4B3BF7DB4BBB4B3BF7BB4BB06
:10022A00B5B3B068B5BB12E009E00A95F1F71A95C3
:10023A00E1F7B3B3B4FF02C00EE00BC0B3B3B5FF2E
:10024A0002C00FE006C0B3B3B6FF02C000E101C0AE
:04025A0000E0089523
:1011640030E040E0BFE46B1611F408E501C00FE481
:10117400202F70E080E008E010E0701781073CF554
:1011840000E010E0502F612F08E010E050176107D5
:10119400BCF4072F182F000F111F000F111F000F91
:1011A400111F040D151DE52FF62FE00FF11FB0E000
:1011B400B083052F162F0F5F1F4F502F612FE4CFE1
:1011C400072F182F0F5F1F4F702F812FD4CF772435
:1011D400882408E010E0701681060CF012C150E07B
:1011E40060E008E010E0501761070CF003C1072D20
:1011F400182D000F111F000F111F000F111F020DDA
:10120400131DE52FF62FE00FF11F0081003219F0B6
:10121400772D882DE6C0BFEF9B2EAB2E762F652F42
:10122400822F932FA42F01E010E009151A050CF466
:10123400D1C04FEF5FEF01E010E0041715070CF485
:10124400C2C0292D3A2D270D381D00E010E02017CB
:1012540031072CF1292D3A2D270D381D08E010E017
:1012640020173107E4F49A01260F371F00E010E03D
:1012740020173107A4F09A01260F371F08E010E069
:101284002017310764F4B0E0AB1611F4B0E09B16FC
:1012940029F4503009F4403009F401C002C09A0125
:1012A4008DC0092D1A2D070D181D000F111F000FD9
:1012B400111F000F111F9801220D331D8A01060F03
:1012C400171FF801E20FF31F0081081709F06DC022
:1012D400092D1A2D070D181D98018A01060F171FD5
:1012E400B02EC12E8901292D3A2D200F311FD22E67
:1012F400E32E8A010B0D1C1DB02EC12E00E010E060
:101304002017310784F008E010E0D016E1065CF401
:1013140000E010E0B016C10634F008E010E0B016AA
:10132400C1060CF401C03CC00D2D1E2D000F111F71
:10133400000F111F000F111F020D131DEB2DFC2DAB
:10134400E00FF11F0081003209F42AC00D2D1E2D7B
:10135400000F111F000F111F000F111F020D131D8D
:10136400EB2DFC2DE00FF11F00810615B1F4072DC4
:10137400182D000F111F000F111F000F111F040D56
:10138400151DFB01E00FF11FB1E0B083092F1A2FE7
:101394000F5F1F4F902FA12F03C00D2D1E2DA3CF24
:1013A400272D382D092D1A2D04C0092D1A2D272D6E
:1013B400382D902EA12E722E832E9A0189010F5F53
:1013C4001F4FA80138CF092D1A2D0F5F1F4F902EE4
:1013D400A12E29CF562F672F772D282F882D392F0F
:1013E4004A2F052F162F0F5F1F4F502F612F772E77
:1013F400882EF7CE072D182D0F5F1F4F702E812ECC
:08140400E8CE032F142F089518
:1004E400CF93DF93CDB7DEB72797CDBFDEBF21967D
:1004F4002F923F924F925F92B0E0B883B0E3B983FA
:10050400B0E3BA83E0DD003009F0FCCFB4B3B061EE
:10051400B4BBB4B3B062B4BBB4B3B064B4BBB4B32F
:10052400B068B4BBB1E02B2E4BD408E71DE1280121
:10053400BEE62B2EB1E03B2E0E944D0B2801B1E00C
:100544003B2EB1E02B2EC4D50091680100FF1FC0E3
:10055400BADD0030D9F4B4B3B061B4BBB4B3B062A3
:10056400B4BBB4B3B064B4BBB4B3B068B4BB02ED51
:100574001DE12801BEE62B2EB1E03B2E0E944D0B5F
:100584002801B1E03B2EB2E02B2EA2D51EC09BDD8C
:100594000030D9F4B4B3B061B4BBB4B3B062B4BB8B
:1005A400B4B3B064B4BBB4B3B068B4BB07EC1DE17E
:1005B4002801BEE62B2EB1E03B2E0E944D0B2801F4
:1005C400B1E03B2EB2E02B2E83D57DDD003009F463
:1005D4006DC018E605EE0A95F1F71A95E1F7B091AA
:1005E4006B01B0FD62C06FDD003009F45EC06BDDED
:1005F40000936A01013020E009F421E0023010E0A8
:1006040009F411E0212B033010E009F411E0212B4F
:10061400043010E009F411E0212B053010E009F456
:1006240011E0212B063010E009F411E0212B0730F2
:1006340010E009F411E0122B0830B0E009F4B1E045
:100644000B2F012BB1F08E010F5F1F4F0D831E8303
:1006540020906A0102DE1D812E81E12FF22F00839A
:1006640000916A0101500093E40008810F5F088340
:1006740017C08E010F5F1F4F0F5F1F4F0D831E8327
:1006840020906A01EADD1D812E81E12FF22F008383
:1006940000916A0109500093E50008810F5F088307
:1006A400B0916B01B160B0936B018FCFB0916B01CE
:1006B400BE7FB0936B0107DD0030A9F4B4B3B06121
:1006C400B4BBB4B3B062B4BBB4B3B064B4BBB4B37E
:1006D400B068B4BB8E010F5F1F4F2801BFE03B2EF3
:1006E400B2E02B2EF5D40881023008F46ECF2DE051
:1006F4001DE208ED0A95F1F71A95E1F72A95D1F76D
:10070400000000005F904F903F902F902696CDBF41
:08071400DEBFDF91CF910895D3
:10025E0020C001E64EC002E64CC003E64AC004E6EA
:10026E0048C005E646C006E644C007E642C008E6BA
:10027E0040C001E33EC002E33CC003E33AC004E3E6
:10028E0038C005E336C006E334C007E332C008E3E6
:10029E0030C0B1E02B16E9F2B2E02B16E1F2B3E07A
:1002AE002B16D9F2B4E02B16D1F2B5E02B16C9F20B
:1002BE00B6E02B16C1F2B7E02B16B9F2B8E02B164A
:1002CE00B1F2B9E02B16A9F2BAE02B16A1F2BBE0FF
:1002DE002B1699F2BCE02B1691F2BDE02B1689F28B
:1002EE00BEE02B1681F2BFE02B1679F2B0E12B1691
:0402FE0071F20895FC
:100BBA00BFE48B1611F408E501C00FE4202F82016F
:100BCA00000F111F000F111F000F111F020D131D1F
:100BDA00F301E00FF11F80824FEF5FEF622F01E018
:100BEA0010E0041715070CF4E7C07FEF8FEF01E060
:100BFA0010E0071718070CF4DAC09A01240D351D06
:100C0A0000E010E02017310724F19A01240D351D68
:100C1A0008E010E020173107E4F4272F382F260DBB
:100C2A00371D00E010E0201731079CF0272F382FDE
:100C3A00260D371D08E010E02017310754F4503014
:100C4A0009F4403029F4803009F4703009F401C005
:100C5A0003C0272F382FA5C08A01040D151D000FC8
:100C6A00111F000F111F000F111F9801220D331DB4
:100C7A00072F182F060D171DF801E20FF31F008129
:100C8A00061709F08CC08A01040D151D9801072F5B
:100C9A00182F060D171D902EA12E972FA82F890108
:100CAA009A01200F311FB22EC32E092F1A2F090DB8
:100CBA001A1D702F812F00E010E02017310784F0F1
:100CCA0008E010E0B016C1065CF400E010E070170E
:100CDA00810734F008E010E0701781070CF403C0B4
:100CEA00292F3A2F5BC00B2D1C2D000F111F000F4F
:100CFA00111F000F111F020D131DE72FF82FE00F10
:100D0A00F11F0081003219F4292F3A2F47C00B2D09
:100D1A001C2D000F111F000F111F000F111F020DB4
:100D2A00131DE72FF82FE00FF11F0081081589F531
:100D3A002B2D3C2D8901041B150B902EA12E000F83
:100D4A00111F000F111F000F111F9801220D331DD3
:100D5A00072F182F091B1A0B702F812FF801E20F8A
:100D6A00F31F0081061791F4092D1A2D000F111F88
:100D7A00000F111F000F111F020D131DE72FF82F6F
:100D8A00E00FF11F8082292D3A2DD4CF292F3A2F37
:100D9A0005C00B2D1C2D972EA82E82CF02C0272FFF
:100DAA00382F89010F5F1F4F702F812F20CF8A01A3
:0A0DBA000F5F1F4FA80113CF08952B
:10092800CF93DF93CDB7DEB72C97CDBFDEBF21962F
:100938004F925F92E5EEFDE1DE0188E090E0DDDCBC
:1009480090E0A0E0292F3A2F08E010E020173107A7
:10095800BCF550E060E0452F562FB90108E010E0E3
:100968004017510744F58B01000F111F000F111F8D
:10097800000F111F020D131DFA01E00FF11F308146
:10098800383520E009F421E00E811F81020FB0E024
:100998001B1F0E831F833F3420E009F421E00C81E4
:1009A8001D81020FB0E01B1F0C831D838A010F5F9E
:1009B8001F4FA801D3CF8B010F5F1F4F9801C4CFE2
:1009C800B4B3B061B4BBB4B3B062B4BBB4B3B064D5
:1009D800B4BBB4B3B068B4BB3F922F92B1E02B2E36
:1009E800EDD12F903F902C813D810E811F81021700
:1009F80013070CF507EC1DE13F922F922801BEE684
:100A08002B2EB1E03B2E45D62801B3E03B2EB1E0BA
:100A18002B2E5CD307EF1DE12801BEE62B2EB1E09B
:100A28003B2E37D62801BCE03B2EB1E02B2E4ED30F
:100A38002F903F9020C002ED1DE13F922F92280198
:100A4800BEE62B2EB1E03B2E24D62801B3E03B2E88
:100A5800B1E02B2E3BD307EF1DE12801BEE62B2E7C
:100A6800B1E03B2E16D62801BCE03B2EB1E02B2E80
:100A78002DD32F903F908E010F5F1F4F0A871B8742
:100A88003F922F924AE050E00C811D81E4DA8C01FC
:100A9800202F205D0A851B85F80120834AE050E05D
:100AA8000C811D81D8DA8B019E012A873B874AE099
:100AB80050E0D1DA8C01202F205D0A851B85F801D2
:100AC80020838E010E5F1F4F0F5F1F4F0A871B8702
:100AD8004AE050E00E811F81BEDA8C01202F205D94
:100AE8000A851B85F80120834AE050E00E811F81AA
:100AF800B2DA8B019E012E5F3F4F2A873B874AE07F
:100B080050E0A9DA8C01202F205D0A851B85F801A9
:100B1800208322E51BE200E00A95F1F71A95E1F738
:100B28002A95D1F70000000000000000B1E02B2E4C
:100B380045D107EC1DE12801BEE62B2EB1E03B2E86
:100B4800A8D52801B1E03B2EB1E02B2EBFD28E01F3
:100B58002801BFE03B2EB1E02B2EB8D202ED1DE1FB
:100B68002801BEE62B2EB1E03B2E93D52801B1E03B
:100B78003B2EB2E02B2EAAD28E010E5F1F4F28010A
:100B8800BFE03B2EB2E02B2EA1D22F903F902BEC52
:100B98001CEE05E80A95F1F71A95E1F72A95D1F7C1
:100BA80000005F904F902B96CDBFDEBFDF91CF91B5
:020BB80008959E
:10005E00C801BA0197FB092E07260AD077FD04D0F6
:10006E000CD006D000201AF4709561957F4F08953C
:10007E00F6F7909581959F4F0895AA1BBB1B51E1F2
:10008E0007C0AA1FBB1FA617B70710F0A61BB70BFA
:10009E00881F991F5A95A9F780959095BC01CD019F
:0400AE000895089514
:0A03020005900D920197E1F70895B0
:10071C00CF93DF93CDB7DEB72397CDBFDEBF219646
:10072C002F923F924F925F92B0E0BA83B2E0B093B7
:10073C00E600C5DC003009F0FCCFB4B3B061B4BB4B
:10074C00B4B3B062B4BBB4B3B064B4BBB4B3B0684C
:10075C00B4BBB1E02B2E30D3BCEB4B2EBDE15B2EEA
:10076C00BEE62B2EB1E03B2E92D72801B1E03B2EFA
:10077C00B1E02B2EA9D4BDED4B2EBDE15B2EBEE618
:10078C002B2EB1E03B2E83D72801B1E03B2EB2E0FB
:10079C002B2E9AD4B0E0B09360000091600008302A
:1007AC0090F5B0E0B093630000916300083028F539
:1007BC0000916000502F60E0550F661F550F661FAB
:1007CC00550F661F04EA10E0050F161F40916300D9
:1007DC00242F30E0200F311F08EE10E0050F161FFC
:1007EC00E42FF0E0E00FF11F0081F901008300918C
:1007FC0063000F5F00936300D7CF009160000F5F21
:10080C0000936000CACF5BDC003009F437C018E6F7
:10081C0005EE0A95F1F71A95E1F7B981B0FD2DC0F7
:10082C004EDC003051F14BDC08830130B1F0088113
:10083C00023099F00881033081F00881043069F0AE
:10084C000881053051F00881063039F008810730F5
:10085C0021F00881083009F007C00A810F5F0A8374
:10086C00B0E0B093E60006C00A810F5F0A83B1E0E6
:10087C00B093E600B981B160B983C5CFB981BE7FB1
:10088C00B9831DDC003099F5B4B3B061B4BBB4B31B
:10089C00B062B4BBB4B3B064B4BBB4B3B068B4BBF3
:1008AC000091E600003081F4BDEE4B2EBDE15B2ED5
:1008BC00BEE62B2EB1E03B2EEAD62801B9E03B2E4A
:1008CC00B2E02B2E01D413C00091E600013079F474
:1008DC00B2EF4B2EBDE15B2EBEE62B2EB1E03B2ED4
:1008EC00D6D62801B9E03B2EB2E02B2EEDD30A81EF
:1008FC00013008F488CF29E216E900E80A95F1F7EF
:10090C001A95E1F72A95D1F75F904F903F902F9071
:0C091C002296CDBFDEBFDF91CF91089581
:101DFC00A0E6B0E0E8EFFBE18AE091E00E9481010F
:021E0C00089537
:101B88000F921F920F931F932F933F93EF93FF93FF
:101B9800BF93BFB7BF932F923F924F925F9200912E
:101BA800E700013059F4B4E64B2EB0E05B2EB4EAFE
:101BB8002B2EB0E03B2E0E9495010AC0B8E24B2EB6
:101BC800B1E05B2EB4EA2B2EB0E03B2E0E949501CB
:101BD8005F904F903F902F90BF91BFBFBF91FF91F3
:101BE800EF913F912F911F910F911F900F90189592
:001BF800ED
:10032A00B4B3B160B4BBB4B3B260B4BBB4B3B46079
:10033A00B4BBB4B3B860B4BBB7B3B160B7BBB7B3FF
:10034A00B260B7BBB5B3B860B5BB12E009E00A95B5
:10035A00F1F71A95E1F7B0E0B0936D0100916D01E4
:10036A00083068F50091690110E0000F111F000FB5
:10037A00111F000F111F9801240D351D00906D01EA
:10038A00B0E01B2E07E010E000191109F801E20F96
:10039A00F31F0081013021F4B5B3BD7FB5BB03C0A3
:1003AA00B5B3B260B5BBB5B3B160B5BBB5B3BE7FCB
:1003BA00B5BB00916D010F5F00936D01CFCFB0E027
:1003CA00B0936D0100916D01083068F500916901E3
:1003DA0010E0000F111F000F111F000F111F9801CD
:1003EA00220D331D00906D01B0E01B2E07E010E0D6
:1003FA0000191109F801E20FF31F00810F3421F4EB
:10040A00B5B3BD7FB5BB03C0B5B3B260B5BBB5B3B9
:10041A00B160B5BBB5B3BE7FB5BB00916D010F5FCF
:10042A0000936D01CFCFB0E0B0936D0100916D01E3
:10043A00083068F50091690110E0000F111F000FE4
:10044A00111F000F111F9801220D331D00906D011D
:10045A00B0E01B2E07E010E000191109F801E20FC5
:10046A00F31F0081083521F4B5B3BD7FB5BB03C0C6
:10047A00B5B3B260B5BBB5B3B160B5BBB5B3BE7FFA
:10048A00B5BB00916D010F5F00936D01CFCFB5B37E
:10049A00B460B5BBB5B3BB7FB5BB009169010F5F53
:1004AA0000936901B8B3B160B8BBB8B3BE7FB8BB3B
:1004BA00093049F4B8B3B260B8BBB8B3BD7FB8BBB2
:1004CA00B0E0B093690112E009E00A95F1F71A95D4
:0A04DA00E1F7B5B3B77FB5BB089595
:101D7800456E74657220796F7572206D6F76650097
:0B1DD20050325F5265642020203A0070
:0B1DC70050315F477265656E203A00E6
:0D1DA400526576657273692047616D6500B8
:0B1DB10054776F20706C617965720040
:101D57004E6F7420612076616C6964206D6F7665C3
:011D6700007B
:101D1300596F75206861766520746F2070617373E5
:011D230000BF
:0F1D88004E6F2076616C6964206D6F7665730015
:101D0200202047616D65206973206F7665722020FF
:011D120000D0
:101D680020202020476F6F646279652020202000A2
:101D24002A20204D454E55202048494E5420202A33
:011D340000AE
:101D46007965733D677265656E206E6F3D72656479
:011D5600008C
:101D35005475726E204F6E2054686520466C69702C
:011D4500009D
:0D1D970048696E742028792F6E293A2000CB
:051DED004E4F20200014
:051DF2005945532000DB
:0B1DBC00506C617920416761696E0086
:081DDD0028792F6E293A20003D
:041DF700574F4E00F4
:011BF80000EC
:021BF9000000EA
:011BFB0000E9
:101BFC0000000000000000000000000000000000D9
:101C0C0000000000000000000000000000000000C8
:101C1C0000000000000000000000000000000000B8
:101C2C0000000000000000000000000000000000A8
:101C3C000000000000000000000000000000000098
:101C4C000000000000000000000000000000000088
:101C5C000000000000000000000000000000000078
:101C6C000000000000000000000000000000000068
:011C7C000067
:011C7D000066
:011C7E000065
:011C7F000262
:101C8000202020202020204F202020202020204FF6
:101C9000202020202020204F202020202020204FE6
:101CA000202020202020204F202020202020204FD6
:101CB000202020202020204F58585858585858206D
:101CC0000000000000000000000000000000000014
:101CD0000000000000000000000000000000000004
:101CE00000000000000000000000000000000000F4
:101CF00000000000000000000000000000000000E4
:011D000000E2
:011D010000E1
:021DE50030309C
:021DE70030309A
:021DE9000000F8
:021DEB000000F6
:00000001FF
